{
  "contractName": "DeedMultiPayouts",
  "abi": [
    {
      "inputs": [
        {
          "internalType": "address",
          "name": "_lawyer",
          "type": "address"
        },
        {
          "internalType": "address payable",
          "name": "_beneficiary",
          "type": "address"
        },
        {
          "internalType": "uint256",
          "name": "fromNow",
          "type": "uint256"
        }
      ],
      "stateMutability": "payable",
      "type": "constructor"
    },
    {
      "inputs": [],
      "name": "INTERVAL",
      "outputs": [
        {
          "internalType": "uint256",
          "name": "",
          "type": "uint256"
        }
      ],
      "stateMutability": "view",
      "type": "function"
    },
    {
      "inputs": [],
      "name": "PAYOUTS",
      "outputs": [
        {
          "internalType": "uint256",
          "name": "",
          "type": "uint256"
        }
      ],
      "stateMutability": "view",
      "type": "function"
    },
    {
      "inputs": [],
      "name": "amount",
      "outputs": [
        {
          "internalType": "uint256",
          "name": "",
          "type": "uint256"
        }
      ],
      "stateMutability": "view",
      "type": "function"
    },
    {
      "inputs": [],
      "name": "beneficiary",
      "outputs": [
        {
          "internalType": "address payable",
          "name": "",
          "type": "address"
        }
      ],
      "stateMutability": "view",
      "type": "function"
    },
    {
      "inputs": [],
      "name": "earliest",
      "outputs": [
        {
          "internalType": "uint256",
          "name": "",
          "type": "uint256"
        }
      ],
      "stateMutability": "view",
      "type": "function"
    },
    {
      "inputs": [],
      "name": "lawyer",
      "outputs": [
        {
          "internalType": "address",
          "name": "",
          "type": "address"
        }
      ],
      "stateMutability": "view",
      "type": "function"
    },
    {
      "inputs": [],
      "name": "paidPayouts",
      "outputs": [
        {
          "internalType": "uint256",
          "name": "",
          "type": "uint256"
        }
      ],
      "stateMutability": "view",
      "type": "function"
    },
    {
      "inputs": [],
      "name": "withdraw",
      "outputs": [],
      "stateMutability": "nonpayable",
      "type": "function"
    }
  ],
  "bytecode": "0x6080604052604051610ba4380380610ba48339818101604052606081101561002657600080fd5b81019080805190602001909291908051906020019092919080519060200190929190505050600160008190555082600160006101000a81548173ffffffffffffffffffffffffffffffffffffffff021916908373ffffffffffffffffffffffffffffffffffffffff16021790555081600260006101000a81548173ffffffffffffffffffffffffffffffffffffffff021916908373ffffffffffffffffffffffffffffffffffffffff1602179055506100ec814261011860201b61069b1790919060201c565b60038190555061010a600a346101a060201b6106511790919060201c565b6004819055505050506102b6565b600080828401905083811015610196576040517f08c379a000000000000000000000000000000000000000000000000000000000815260040180806020018281038252601b8152602001807f536166654d6174683a206164646974696f6e206f766572666c6f77000000000081525060200191505060405180910390fd5b8091505092915050565b60006101e883836040518060400160405280601a81526020017f536166654d6174683a206469766973696f6e206279207a65726f0000000000008152506101f060201b60201c565b905092915050565b6000808311829061029c576040517f08c379a00000000000000000000000000000000000000000000000000000000081526004018080602001828103825283818151815260200191508051906020019080838360005b83811015610261578082015181840152602081019050610246565b50505050905090810190601f16801561028e5780820380516001836020036101000a031916815260200191505b509250505060405180910390fd5b5060008385816102a857fe5b049050809150509392505050565b6108df806102c56000396000f3fe608060405234801561001057600080fd5b50600436106100885760003560e01c80634a8a7ce31161005b5780634a8a7ce3146101495780635dd65d3b1461016757806389facb2014610185578063aa8c217c146101a357610088565b80632be521461461008d57806338af3eed146100ab5780633bfb6e31146100f55780633ccfd60b1461013f575b600080fd5b6100956101c1565b6040518082815260200191505060405180910390f35b6100b36101c6565b604051808273ffffffffffffffffffffffffffffffffffffffff1673ffffffffffffffffffffffffffffffffffffffff16815260200191505060405180910390f35b6100fd6101ec565b604051808273ffffffffffffffffffffffffffffffffffffffff1673ffffffffffffffffffffffffffffffffffffffff16815260200191505060405180910390f35b610147610212565b005b6101516105f0565b6040518082815260200191505060405180910390f35b61016f6105f6565b6040518082815260200191505060405180910390f35b61018d6105fc565b6040518082815260200191505060405180910390f35b6101ab610601565b6040518082815260200191505060405180910390f35b600a81565b600260009054906101000a900473ffffffffffffffffffffffffffffffffffffffff1681565b600160009054906101000a900473ffffffffffffffffffffffffffffffffffffffff1681565b6002600054141561028b576040517f08c379a000000000000000000000000000000000000000000000000000000000815260040180806020018281038252601f8152602001807f5265656e7472616e637947756172643a207265656e7472616e742063616c6c0081525060200191505060405180910390fd5b6002600081905550600260009054906101000a900473ffffffffffffffffffffffffffffffffffffffff1673ffffffffffffffffffffffffffffffffffffffff163373ffffffffffffffffffffffffffffffffffffffff1614610356576040517f08c379a000000000000000000000000000000000000000000000000000000000815260040180806020018281038252601e8152602001807f6f6e6c792062656e65666963696172792063616e2063616c6c2074686973000081525060200191505060405180910390fd5b6003544210156103ce576040517f08c379a00000000000000000000000000000000000000000000000000000000081526004018080602001828103825260168152602001807f746f6f206561726c7920746f206d616b652063616c6c0000000000000000000081525060200191505060405180910390fd5b600a60055410610446576040517f08c379a000000000000000000000000000000000000000000000000000000000815260040180806020018281038252600f8152602001807f6e6f207061796f757473206c656674000000000000000000000000000000000081525060200191505060405180910390fd5b6000610470600a6104626003544261060790919063ffffffff16565b61065190919063ffffffff16565b905060006104896005548361060790919063ffffffff16565b9050600a6104a26005548361069b90919063ffffffff16565b116104ad57806104c4565b6104c3600554600a61060790919063ffffffff16565b5b90506104db8160055461069b90919063ffffffff16565b6005819055506000600260009054906101000a900473ffffffffffffffffffffffffffffffffffffffff1673ffffffffffffffffffffffffffffffffffffffff16600454830260405180600001905060006040518083038185875af1925050503d8060008114610567576040519150601f19603f3d011682016040523d82523d6000602084013e61056c565b606091505b50509050806105e3576040517f08c379a000000000000000000000000000000000000000000000000000000000815260040180806020018281038252600f8152602001807f5472616e73666572206661696c6564000000000000000000000000000000000081525060200191505060405180910390fd5b5050506001600081905550565b60055481565b60035481565b600a81565b60045481565b600061064983836040518060400160405280601e81526020017f536166654d6174683a207375627472616374696f6e206f766572666c6f770000815250610723565b905092915050565b600061069383836040518060400160405280601a81526020017f536166654d6174683a206469766973696f6e206279207a65726f0000000000008152506107e3565b905092915050565b600080828401905083811015610719576040517f08c379a000000000000000000000000000000000000000000000000000000000815260040180806020018281038252601b8152602001807f536166654d6174683a206164646974696f6e206f766572666c6f77000000000081525060200191505060405180910390fd5b8091505092915050565b60008383111582906107d0576040517f08c379a00000000000000000000000000000000000000000000000000000000081526004018080602001828103825283818151815260200191508051906020019080838360005b8381101561079557808201518184015260208101905061077a565b50505050905090810190601f1680156107c25780820380516001836020036101000a031916815260200191505b509250505060405180910390fd5b5060008385039050809150509392505050565b6000808311829061088f576040517f08c379a00000000000000000000000000000000000000000000000000000000081526004018080602001828103825283818151815260200191508051906020019080838360005b83811015610854578082015181840152602081019050610839565b50505050905090810190601f1680156108815780820380516001836020036101000a031916815260200191505b509250505060405180910390fd5b50600083858161089b57fe5b04905080915050939250505056fea2646970667358221220d269ffc1f30931ff99ee01f973ec4466bab43865c0fecfe3e3535725812538e864736f6c63430006000033",
  "source": "// SPDX-License-Identifier: UNLICENSED\npragma solidity 0.6.0;\n\nimport \"@openzeppelin/contracts/math/SafeMath.sol\";\nimport \"@openzeppelin/contracts/utils/ReentrancyGuard.sol\";\n\ncontract DeedMultiPayouts is ReentrancyGuard {\n    using SafeMath for uint256;\n    \n    address public lawyer;  //lawyer's address. Should be the deployer\n    address payable public beneficiary;     //beneficiary's address\n    uint public earliest;       //earliest time before payments can be made\n    uint public amount;     //amount to be withdrawn\n    uint constant public PAYOUTS = 10;      //maximum number of times to make withdrawal\n    uint constant public INTERVAL = 10;     //time interva before next withdrawal\n    uint public paidPayouts;        //number of eligible withdrawals made\n    \n    //constructor function passes the various addresses and earliest withdrawal time on deployment\n    constructor(address _lawyer, address payable _beneficiary, uint fromNow) payable public {\n        lawyer = _lawyer;\n        beneficiary = _beneficiary;\n        earliest = now.add(fromNow) ;\n        amount = msg.value.div(PAYOUTS) ;\n    }\n    \n    //function for withdrawal of funds\n    function withdraw() public nonReentrant{\n        //beneficiary must be the caller\n        require(msg.sender == beneficiary, 'only beneficiary can call this');\n        //cannot make call before thestipulated time\n        require(now >= earliest, 'too early to make call');\n        //must not withdraw more than required times\n        require(paidPayouts < PAYOUTS, 'no payouts left');\n        //eligible payouts in time intervals\n        uint eligiblePayouts = now.sub(earliest).div(INTERVAL);\n        //calculates the due number of payouts at a given time\n        uint duePayouts = eligiblePayouts.sub(paidPayouts) ;\n        duePayouts = duePayouts.add(paidPayouts)  > PAYOUTS ? PAYOUTS.sub(paidPayouts) : duePayouts;\n        paidPayouts = paidPayouts.add(duePayouts);\n        //transfers funds from smart contract to beneficiary\n        (bool success,) = beneficiary.call.value(duePayouts * amount)(\"\");\n        require(success, \"Transfer failed\");\n       // beneficiary.transfer(duePayouts * amount);\n    }\n}\n\n",
  "sourcePath": "/home/raneet/Downloads/Deed-Multi-Payouts/contracts/DeedMultiPayouts.sol",
  "compiler": {
    "name": "solc",
    "version": "0.6.0+commit.26b70077.Emscripten.clang"
  },
  "schemaVersion": "3.2.0",
  "updatedAt": "2020-11-05T14:14:33.285Z",
  "devdoc": {
    "methods": {}
  },
  "userdoc": {
    "methods": {}
  }
}